{
  "address": "0x067f56668eb97F2feE94822BAe55B2bf3c3Dab55",
  "abi": [
    {
      "anonymous": false,
      "inputs": [
        {
          "indexed": true,
          "internalType": "uint256",
          "name": "id",
          "type": "uint256"
        },
        {
          "indexed": true,
          "internalType": "address",
          "name": "creator",
          "type": "address"
        }
      ],
      "name": "DonationPoolCreated",
      "type": "event"
    },
    {
      "anonymous": false,
      "inputs": [
        {
          "indexed": true,
          "internalType": "address",
          "name": "from",
          "type": "address"
        },
        {
          "indexed": false,
          "internalType": "address",
          "name": "token",
          "type": "address"
        },
        {
          "indexed": false,
          "internalType": "uint256",
          "name": "amount",
          "type": "uint256"
        },
        {
          "indexed": false,
          "internalType": "string",
          "name": "message",
          "type": "string"
        }
      ],
      "name": "NewDonation",
      "type": "event"
    },
    {
      "anonymous": false,
      "inputs": [
        {
          "indexed": false,
          "internalType": "uint256",
          "name": "poolId",
          "type": "uint256"
        },
        {
          "indexed": false,
          "internalType": "address",
          "name": "subscriber",
          "type": "address"
        },
        {
          "indexed": false,
          "internalType": "address",
          "name": "beneficiary",
          "type": "address"
        }
      ],
      "name": "SubscriptionExpired",
      "type": "event"
    },
    {
      "anonymous": false,
      "inputs": [
        {
          "indexed": false,
          "internalType": "uint256",
          "name": "poolId",
          "type": "uint256"
        },
        {
          "indexed": false,
          "internalType": "address",
          "name": "subscriber",
          "type": "address"
        },
        {
          "indexed": false,
          "internalType": "address",
          "name": "beneficiary",
          "type": "address"
        }
      ],
      "name": "SubscriptionPaymentFailed",
      "type": "event"
    },
    {
      "inputs": [
        {
          "internalType": "uint256",
          "name": "poolId",
          "type": "uint256"
        },
        {
          "internalType": "address",
          "name": "tokenAddress",
          "type": "address"
        }
      ],
      "name": "balanceOf",
      "outputs": [
        {
          "internalType": "uint256",
          "name": "",
          "type": "uint256"
        }
      ],
      "stateMutability": "view",
      "type": "function"
    },
    {
      "inputs": [
        {
          "internalType": "bytes",
          "name": "",
          "type": "bytes"
        }
      ],
      "name": "checkUpkeep",
      "outputs": [
        {
          "internalType": "bool",
          "name": "",
          "type": "bool"
        },
        {
          "internalType": "bytes",
          "name": "",
          "type": "bytes"
        }
      ],
      "stateMutability": "view",
      "type": "function"
    },
    {
      "inputs": [
        {
          "internalType": "uint256",
          "name": "_maxAmountToken",
          "type": "uint256"
        },
        {
          "internalType": "string",
          "name": "metadata",
          "type": "string"
        }
      ],
      "name": "createPool",
      "outputs": [
        {
          "internalType": "uint256",
          "name": "",
          "type": "uint256"
        }
      ],
      "stateMutability": "nonpayable",
      "type": "function"
    },
    {
      "inputs": [
        {
          "internalType": "uint256",
          "name": "poolId",
          "type": "uint256"
        },
        {
          "internalType": "address",
          "name": "tokenAddress",
          "type": "address"
        },
        {
          "internalType": "uint256",
          "name": "amount",
          "type": "uint256"
        },
        {
          "internalType": "string",
          "name": "message",
          "type": "string"
        }
      ],
      "name": "donate",
      "outputs": [],
      "stateMutability": "payable",
      "type": "function"
    },
    {
      "inputs": [
        {
          "internalType": "uint256[]",
          "name": "_poolIds",
          "type": "uint256[]"
        }
      ],
      "name": "getSubsByPoolIds",
      "outputs": [
        {
          "components": [
            {
              "internalType": "address",
              "name": "subscriber",
              "type": "address"
            },
            {
              "internalType": "address",
              "name": "token",
              "type": "address"
            },
            {
              "internalType": "uint256",
              "name": "amount",
              "type": "uint256"
            },
            {
              "internalType": "uint256",
              "name": "nextPaymentTime",
              "type": "uint256"
            },
            {
              "internalType": "uint256",
              "name": "interval",
              "type": "uint256"
            },
            {
              "internalType": "uint256",
              "name": "poolId",
              "type": "uint256"
            },
            {
              "internalType": "uint8",
              "name": "remainingDuration",
              "type": "uint8"
            },
            {
              "internalType": "bool",
              "name": "active",
              "type": "bool"
            }
          ],
          "internalType": "struct BeeFunded.Subscription[]",
          "name": "",
          "type": "tuple[]"
        }
      ],
      "stateMutability": "view",
      "type": "function"
    },
    {
      "inputs": [
        {
          "internalType": "address",
          "name": "subscriber",
          "type": "address"
        },
        {
          "internalType": "address",
          "name": "creator",
          "type": "address"
        }
      ],
      "name": "isSubscribed",
      "outputs": [
        {
          "internalType": "bool",
          "name": "",
          "type": "bool"
        }
      ],
      "stateMutability": "view",
      "type": "function"
    },
    {
      "inputs": [
        {
          "internalType": "bytes",
          "name": "performData",
          "type": "bytes"
        }
      ],
      "name": "performUpkeep",
      "outputs": [],
      "stateMutability": "nonpayable",
      "type": "function"
    },
    {
      "inputs": [
        {
          "internalType": "uint256",
          "name": "",
          "type": "uint256"
        },
        {
          "internalType": "address",
          "name": "",
          "type": "address"
        }
      ],
      "name": "poolBalances",
      "outputs": [
        {
          "internalType": "uint256",
          "name": "",
          "type": "uint256"
        }
      ],
      "stateMutability": "view",
      "type": "function"
    },
    {
      "inputs": [],
      "name": "poolID",
      "outputs": [
        {
          "internalType": "uint256",
          "name": "_value",
          "type": "uint256"
        }
      ],
      "stateMutability": "view",
      "type": "function"
    },
    {
      "inputs": [
        {
          "internalType": "uint256",
          "name": "",
          "type": "uint256"
        }
      ],
      "name": "pools",
      "outputs": [
        {
          "internalType": "uint256",
          "name": "id",
          "type": "uint256"
        },
        {
          "internalType": "address",
          "name": "owner",
          "type": "address"
        },
        {
          "internalType": "uint256",
          "name": "maxAmountToken",
          "type": "uint256"
        },
        {
          "internalType": "address",
          "name": "maxAmountTokenToken",
          "type": "address"
        },
        {
          "internalType": "string",
          "name": "metadataUrl",
          "type": "string"
        },
        {
          "internalType": "uint256",
          "name": "chainId",
          "type": "uint256"
        }
      ],
      "stateMutability": "view",
      "type": "function"
    },
    {
      "inputs": [
        {
          "internalType": "uint256",
          "name": "poolId",
          "type": "uint256"
        },
        {
          "internalType": "address",
          "name": "token",
          "type": "address"
        },
        {
          "internalType": "uint256",
          "name": "amount",
          "type": "uint256"
        },
        {
          "internalType": "uint256",
          "name": "interval",
          "type": "uint256"
        },
        {
          "internalType": "uint8",
          "name": "duration",
          "type": "uint8"
        }
      ],
      "name": "subscribe",
      "outputs": [],
      "stateMutability": "nonpayable",
      "type": "function"
    },
    {
      "inputs": [
        {
          "internalType": "uint256",
          "name": "",
          "type": "uint256"
        }
      ],
      "name": "subscriptions",
      "outputs": [
        {
          "internalType": "address",
          "name": "subscriber",
          "type": "address"
        },
        {
          "internalType": "address",
          "name": "token",
          "type": "address"
        },
        {
          "internalType": "uint256",
          "name": "amount",
          "type": "uint256"
        },
        {
          "internalType": "uint256",
          "name": "nextPaymentTime",
          "type": "uint256"
        },
        {
          "internalType": "uint256",
          "name": "interval",
          "type": "uint256"
        },
        {
          "internalType": "uint256",
          "name": "poolId",
          "type": "uint256"
        },
        {
          "internalType": "uint8",
          "name": "remainingDuration",
          "type": "uint8"
        },
        {
          "internalType": "bool",
          "name": "active",
          "type": "bool"
        }
      ],
      "stateMutability": "view",
      "type": "function"
    },
    {
      "inputs": [],
      "name": "unsubscribe",
      "outputs": [],
      "stateMutability": "nonpayable",
      "type": "function"
    },
    {
      "inputs": [
        {
          "internalType": "uint256",
          "name": "poolId",
          "type": "uint256"
        },
        {
          "internalType": "address",
          "name": "tokenAddress",
          "type": "address"
        },
        {
          "internalType": "uint256",
          "name": "amount",
          "type": "uint256"
        }
      ],
      "name": "withdraw",
      "outputs": [],
      "stateMutability": "nonpayable",
      "type": "function"
    },
    {
      "stateMutability": "payable",
      "type": "receive"
    }
  ],
  "transactionHash": "0xed2b065865741c69c8f425f07a533fda1e26c9bf57eaa5ec30b91135dc00a15e",
  "args": [],
  "numDeployments": 2,
  "solcInputHash": "6f758170e688de1e1e0c71fec723efe5",
  "bytecode": "0x6080604052348015600f57600080fd5b50611daa8061001f6000396000f3fe6080604052600436106100e15760003560e01c80638d9344851161007f578063ce4a37fe11610059578063ce4a37fe146102b9578063e63697c8146102d9578063f6416ef6146102f9578063fcae44841461032957600080fd5b80638d9344851461023b578063ac4afa3814610252578063bdcf2b061461028457600080fd5b80634585e33b116100bb5780634585e33b146101b85780636e04ff0d146101da5780637f15463e146102085780638cdbbdf81461021b57600080fd5b80632d5bbf60146100ed57806330a412591461015d5780633656eec21461018a57600080fd5b366100e857005b600080fd5b3480156100f957600080fd5b5061010d6101083660046115d5565b61033e565b604080516001600160a01b03998a168152989097166020890152958701949094526060860192909252608085015260a084015260ff1660c0830152151560e0820152610100015b60405180910390f35b34801561016957600080fd5b5061017d6101783660046115ee565b6103a6565b6040516101549190611665565b34801561019657600080fd5b506101aa6101a5366004611730565b6105d8565b604051908152602001610154565b3480156101c457600080fd5b506101d86101d336600461179e565b610601565b005b3480156101e657600080fd5b506101fa6101f536600461179e565b610809565b604051610154929190611826565b6101d8610216366004611849565b6108d3565b34801561022757600080fd5b506101d86102363660046118b1565b61091d565b34801561024757600080fd5b506003546101aa9081565b34801561025e57600080fd5b5061027261026d3660046115d5565b610c32565b6040516101549695949392919061190b565b34801561029057600080fd5b506101aa61029f366004611730565b600060208181529281526040808220909352908152205481565b3480156102c557600080fd5b506101aa6102d4366004611957565b610cfe565b3480156102e557600080fd5b506101d86102f43660046119a3565b610d8e565b34801561030557600080fd5b506103196103143660046119d9565b611027565b6040519015158152602001610154565b34801561033557600080fd5b506101d8611123565b6002818154811061034e57600080fd5b600091825260209091206007909102018054600182015460028301546003840154600485015460058601546006909601546001600160a01b039586169750949093169491939092919060ff8082169161010090041688565b60606000805b6002548110156104235760005b8481101561041a578585828181106103d3576103d3611a03565b90506020020135600283815481106103ed576103ed611a03565b90600052602060002090600702016005015403610412578261040e81611a2f565b9350505b6001016103b9565b506001016103ac565b5060008167ffffffffffffffff81111561043f5761043f611a48565b6040519080825280602002602001820160405280156104ae57816020015b604080516101008101825260008082526020808301829052928201819052606082018190526080820181905260a0820181905260c0820181905260e0820152825260001990920191018161045d5790505b50905060005b6002548110156105cd5760005b858110156105c4578686828181106104db576104db611a03565b90506020020135600283815481106104f5576104f5611a03565b906000526020600020906007020160050154036105bc576002828154811061051f5761051f611a03565b6000918252602091829020604080516101008082018352600790940290920180546001600160a01b039081168452600182015416948301949094526002840154908201526003830154606082015260048301546080820152600583015460a082015260069092015460ff80821660c085015291900416151560e082015283518490849081106105b0576105b0611a03565b60200260200101819052505b6001016104c1565b506001016104b4565b509150505b92915050565b6000828152602081815260408083206001600160a01b03851684529091528120545b9392505050565b600061060f828401846115d5565b905060006002828154811061062657610626611a03565b906000526020600020906007020190508060060160019054906101000a900460ff166106995760405162461bcd60e51b815260206004820152601a60248201527f537562736372697074696f6e206973206e6f742061637469766500000000000060448201526064015b60405180910390fd5b80600301544210156106db5760405162461bcd60e51b815260206004820152600b60248201526a139bdd08191d59481e595d60aa1b6044820152606401610690565b8054600582015460018084015460028501546040805180820190915260128152712932b1bab93934b733903237b730ba34b7b760711b602082015261072f956001600160a01b0390811695949316926111b7565b600681015460ff166001036107b35760068101805461ff0019169055600581015481546000828152600160208181526040928390209091015482519485526001600160a01b03938416918501919091529190911682820152517f6f64c430f1757a2f963df92588b54232dcc1729acb6862408a0f261d5d78771d9181900360600190a15b600681018054600191906000906107ce90849060ff16611a5e565b92506101000a81548160ff021916908360ff16021790555080600401548160030160008282546107fe9190611a77565b909155505050505050565b6000606060005b6002548110156108b7576002818154811061082d5761082d611a03565b906000526020600020906007020160060160019054906101000a900460ff16801561087c57506002818154811061086657610866611a03565b9060005260206000209060070201600301544210155b156108af5760018160405160200161089691815260200190565b60405160208183030381529060405292509250506108cc565b600101610810565b50506040805160208101909152600080825291505b9250929050565b6109163386868686868080601f016020809104026020016040519081016040528093929190818152602001838380828437600092018290525092506111b7915050565b5050505050565b62093a808210156109695760405162461bcd60e51b81526020600482015260166024820152754d696e20696e74657276616c2069732031207765656b60501b6044820152606401610690565b600083116109a75760405162461bcd60e51b815260206004820152600b60248201526a16995c9bc8185b5bdd5b9d60aa1b6044820152606401610690565b600085815260016020819052604090912001546001600160a01b0316610a055760405162461bcd60e51b8152602060048201526013602482015272141bdbdb08191bd95cc81b9bdd08195e1a5cdd606a1b6044820152606401610690565b604051636eb1769f60e11b815233600482015230602482015283906001600160a01b0386169063dd62ed3e90604401602060405180830381865afa158015610a51573d6000803e3d6000fd5b505050506040513d601f19601f82011682018060405250810190610a759190611a8a565b11610abb5760405162461bcd60e51b8152602060048201526016602482015275496e73756666696369656e7420616c6c6f77616e636560501b6044820152606401610690565b60408051610100810182523381526001600160a01b038616602082015290810184905260029060608101610aef8542611a77565b8152602080820186905260408083018a905260ff8087166060808601919091526001608095860181905287548082018955600098895297859020875160079099020180546001600160a01b03998a166001600160a01b031991821617825588870151928201805493909a16921691909117909755858301516002880155850151600387015592840151600486015560a0840151600586015560c08401516006909501805460e09095015115156101000261ffff19909516959093169490941792909217905581518083018352600881526702a37b5b2b7101e960c51b818301528251808401909352600d83526c036b9b39739b2b73232b9101e9609d1b91830191909152610bff91869033611518565b610916338686866040518060400160405280600c81526020016b29bab139b1b934b83a34b7b760a11b81525060016111b7565b6001602081905260009182526040909120805491810154600282015460038301546004840180546001600160a01b039485169593949092169291610c7590611aa3565b80601f0160208091040260200160405190810160405280929190818152602001828054610ca190611aa3565b8015610cee5780601f10610cc357610100808354040283529160200191610cee565b820191906000526020600020905b815481529060010190602001808311610cd157829003601f168201915b5050505050908060050154905086565b6000610d0e600380546001019055565b600354600081815260016020526040902090815560048101610d31848683611b29565b506001810180546001600160a01b03191633908117909155600282018690554660058301556003546040517f3013955dcb2503d093c0592e59541b3d266372edb1a63ea9ad2d5845314cde2090600090a350506003549392505050565b6000838152600160208190526040909120015483906001600160a01b03163314610deb5760405162461bcd60e51b815260206004820152600e60248201526d2737ba103837b7b61037bbb732b960911b6044820152606401610690565b6000848152602081815260408083206001600160a01b0387168452909152902054821115610e525760405162461bcd60e51b8152602060048201526014602482015273496e73756666696369656e742062616c616e636560601b6044820152606401610690565b6040516370a0823160e01b81523060048201528390610efb906001600160a01b038316906370a0823190602401602060405180830381865afa158015610e9c573d6000803e3d6000fd5b505050506040513d601f19601f82011682018060405250810190610ec09190611a8a565b6040518060400160405280601a81526020017f203d205468652062616c616e6365206f6620636f6e7472616374000000000000815250611567565b6001600160a01b038416610f3c57604051339084156108fc029085906000818181858888f19350505050158015610f36573d6000803e3d6000fd5b50610feb565b60405163a9059cbb60e01b8152336004820152602481018490526001600160a01b0382169063a9059cbb906044016020604051808303816000875af1158015610f89573d6000803e3d6000fd5b505050506040513d601f19601f82011682018060405250810190610fad9190611be9565b610feb5760405162461bcd60e51b815260206004820152600f60248201526e151c985b9cd9995c8819985a5b1959608a1b6044820152606401610690565b6000858152602081815260408083206001600160a01b03881684529091528120805485929061101b908490611c0b565b90915550505050505050565b6000805b600254811015611119576002818154811061104857611048611a03565b906000526020600020906007020160060160019054906101000a900460ff1680156110a75750836001600160a01b03166002828154811061108b5761108b611a03565b60009182526020909120600790910201546001600160a01b0316145b80156111025750826001600160a01b031660016000600284815481106110cf576110cf611a03565b600091825260208083206005600790930201919091015483528201929092526040019020600101546001600160a01b0316145b156111115760019150506105d2565b60010161102b565b5060009392505050565b60005b6002548110156111b457336001600160a01b03166002828154811061114d5761114d611a03565b60009182526020909120600790910201546001600160a01b0316036111ac5760006002828154811061118157611181611a03565b906000526020600020906007020160060160016101000a81548160ff02191690831515021790555050565b600101611126565b50565b6000858152600160208190526040909120908101546001600160a01b03166112175760405162461bcd60e51b8152602060048201526013602482015272141bdbdb08191bd95cc81b9bdd08195e1a5cdd606a1b6044820152606401610690565b6001600160a01b0385166112855760003411801561123457508334145b6112805760405162461bcd60e51b815260206004820152601b60248201527f496e76616c6964204e617469766520546f6b656e20616d6f756e7400000000006044820152606401610690565b611400565b600084116112ca5760405162461bcd60e51b81526020600482015260126024820152710416d6f756e74206d757374206265203e20360741b6044820152606401610690565b84826113475760405163a9059cbb60e01b8152306004820152602481018690526001600160a01b0382169063a9059cbb906044016020604051808303816000875af115801561131d573d6000803e3d6000fd5b505050506040513d601f19601f820116820180604052508101906113419190611be9565b506113fe565b6040516323b872dd60e01b81526001600160a01b038981166004830152306024830152604482018790528216906323b872dd906064016020604051808303816000875af115801561139c573d6000803e3d6000fd5b505050506040513d601f19601f820116820180604052508101906113c09190611be9565b6113fe5760405162461bcd60e51b815260206004820152600f60248201526e151c985b9cd9995c8819985a5b1959608a1b6044820152606401610690565b505b604080516080810182526001600160a01b03808a16825287811660208084019182529383018881526060840188815260068701805460018181018355600092835297909120865160049092020180549186166001600160a01b0319928316178155935196840180549790951696169590951790925590516002820155915190919060038201906114909082611c1e565b5050506000868152602081815260408083206001600160a01b0389168452909152812080548692906114c3908490611a77565b92505081905550866001600160a01b03167f4317221858e5f793cf2d901da4c6891208aa0dd30fde8804bbe7e894828142c686868660405161150793929190611cdd565b60405180910390a250505050505050565b611561848484846040516024016115329493929190611d0d565b60408051601f198184030181529190526020810180516001600160e01b031663aabc9a3160e01b1790526115b0565b50505050565b6115ac828260405160240161157d929190611d5b565b60408051601f198184030181529190526020810180516001600160e01b031663643fd0df60e01b1790526115b0565b5050565b6111b48160006a636f6e736f6c652e6c6f679050600080835160208501845afa505050565b6000602082840312156115e757600080fd5b5035919050565b6000806020838503121561160157600080fd5b823567ffffffffffffffff81111561161857600080fd5b8301601f8101851361162957600080fd5b803567ffffffffffffffff81111561164057600080fd5b8560208260051b840101111561165557600080fd5b6020919091019590945092505050565b602080825282518282018190526000918401906040840190835b8181101561170957835160018060a01b03815116845260018060a01b03602082015116602085015260408101516040850152606081015160608501526080810151608085015260a081015160a085015260ff60c08201511660c085015260e081015190506116f160e085018215159052565b5060209390930192610100929092019160010161167f565b509095945050505050565b80356001600160a01b038116811461172b57600080fd5b919050565b6000806040838503121561174357600080fd5b8235915061175360208401611714565b90509250929050565b60008083601f84011261176e57600080fd5b50813567ffffffffffffffff81111561178657600080fd5b6020830191508360208285010111156108cc57600080fd5b600080602083850312156117b157600080fd5b823567ffffffffffffffff8111156117c857600080fd5b6117d48582860161175c565b90969095509350505050565b6000815180845260005b81811015611806576020818501810151868301820152016117ea565b506000602082860101526020601f19601f83011685010191505092915050565b821515815260406020820152600061184160408301846117e0565b949350505050565b60008060008060006080868803121561186157600080fd5b8535945061187160208701611714565b935060408601359250606086013567ffffffffffffffff81111561189457600080fd5b6118a08882890161175c565b969995985093965092949392505050565b600080600080600060a086880312156118c957600080fd5b853594506118d960208701611714565b93506040860135925060608601359150608086013560ff811681146118fd57600080fd5b809150509295509295909350565b8681526001600160a01b038681166020830152604082018690528416606082015260c060808201819052600090611944908301856117e0565b90508260a0830152979650505050505050565b60008060006040848603121561196c57600080fd5b83359250602084013567ffffffffffffffff81111561198a57600080fd5b6119968682870161175c565b9497909650939450505050565b6000806000606084860312156119b857600080fd5b833592506119c860208501611714565b929592945050506040919091013590565b600080604083850312156119ec57600080fd5b6119f583611714565b915061175360208401611714565b634e487b7160e01b600052603260045260246000fd5b634e487b7160e01b600052601160045260246000fd5b600060018201611a4157611a41611a19565b5060010190565b634e487b7160e01b600052604160045260246000fd5b60ff82811682821603908111156105d2576105d2611a19565b808201808211156105d2576105d2611a19565b600060208284031215611a9c57600080fd5b5051919050565b600181811c90821680611ab757607f821691505b602082108103611ad757634e487b7160e01b600052602260045260246000fd5b50919050565b601f821115611b2457806000526020600020601f840160051c81016020851015611b045750805b601f840160051c820191505b818110156109165760008155600101611b10565b505050565b67ffffffffffffffff831115611b4157611b41611a48565b611b5583611b4f8354611aa3565b83611add565b6000601f841160018114611b895760008515611b715750838201355b600019600387901b1c1916600186901b178355610916565b600083815260209020601f19861690835b82811015611bba5786850135825560209485019460019092019101611b9a565b5086821015611bd75760001960f88860031b161c19848701351681555b505060018560011b0183555050505050565b600060208284031215611bfb57600080fd5b815180151581146105fa57600080fd5b818103818111156105d2576105d2611a19565b815167ffffffffffffffff811115611c3857611c38611a48565b611c4c81611c468454611aa3565b84611add565b6020601f821160018114611c805760008315611c685750848201515b600019600385901b1c1916600184901b178455610916565b600084815260208120601f198516915b82811015611cb05787850151825560209485019460019092019101611c90565b5084821015611cce5786840151600019600387901b60f8161c191681555b50505050600190811b01905550565b60018060a01b0384168152826020820152606060408201526000611d0460608301846117e0565b95945050505050565b608081526000611d2060808301876117e0565b6001600160a01b03861660208401528281036040840152611d4181866117e0565b91505060018060a01b038316606083015295945050505050565b82815260406020820152600061184160408301846117e056fea2646970667358221220643b544721f7029c5b2df844442cfaf1f815a6908137fb16d64f9ee974ee5b8564736f6c634300081e0033",
  "devdoc": {
    "kind": "dev",
    "methods": {
      "performUpkeep(bytes)": {
        "details": "The input to this method should not be trusted, and the caller of the method should not even be restricted to any single registry. Anyone should be able call it, and the input should be validated, there is no guarantee that the data passed in is the performData returned from checkUpkeep. This could happen due to malicious keepers, racing keepers, or simply a state change while the performUpkeep transaction is waiting for confirmation. Always validate the data passed in.",
        "params": {
          "performData": "is the data which was passed back from the checkData simulation. If it is encoded, it can easily be decoded into other types by calling `abi.decode`. This data should not be trusted, and should be validated against the contract's current state."
        }
      }
    },
    "version": 1
  },
  "userdoc": {
    "kind": "user",
    "methods": {
      "performUpkeep(bytes)": {
        "notice": "method that is actually executed by the keepers, via the registry. The data returned by the checkUpkeep simulation will be passed into this method to actually be executed."
      }
    },
    "version": 1
  },
  "storageLayout": {
    "storage": [
      {
        "astId": 263,
        "contract": "contracts/BeeFunded.sol:BeeFunded",
        "label": "poolBalances",
        "offset": 0,
        "slot": "0",
        "type": "t_mapping(t_uint256,t_mapping(t_address,t_uint256))"
      },
      {
        "astId": 268,
        "contract": "contracts/BeeFunded.sol:BeeFunded",
        "label": "pools",
        "offset": 0,
        "slot": "1",
        "type": "t_mapping(t_uint256,t_struct(Pool)257_storage)"
      },
      {
        "astId": 272,
        "contract": "contracts/BeeFunded.sol:BeeFunded",
        "label": "subscriptions",
        "offset": 0,
        "slot": "2",
        "type": "t_array(t_struct(Subscription)231_storage)dyn_storage"
      },
      {
        "astId": 279,
        "contract": "contracts/BeeFunded.sol:BeeFunded",
        "label": "poolID",
        "offset": 0,
        "slot": "3",
        "type": "t_struct(Counter)24_storage"
      }
    ],
    "types": {
      "t_address": {
        "encoding": "inplace",
        "label": "address",
        "numberOfBytes": "20"
      },
      "t_array(t_struct(Donation)240_storage)dyn_storage": {
        "base": "t_struct(Donation)240_storage",
        "encoding": "dynamic_array",
        "label": "struct BeeFunded.Donation[]",
        "numberOfBytes": "32"
      },
      "t_array(t_struct(Subscription)231_storage)dyn_storage": {
        "base": "t_struct(Subscription)231_storage",
        "encoding": "dynamic_array",
        "label": "struct BeeFunded.Subscription[]",
        "numberOfBytes": "32"
      },
      "t_bool": {
        "encoding": "inplace",
        "label": "bool",
        "numberOfBytes": "1"
      },
      "t_mapping(t_address,t_uint256)": {
        "encoding": "mapping",
        "key": "t_address",
        "label": "mapping(address => uint256)",
        "numberOfBytes": "32",
        "value": "t_uint256"
      },
      "t_mapping(t_uint256,t_mapping(t_address,t_uint256))": {
        "encoding": "mapping",
        "key": "t_uint256",
        "label": "mapping(uint256 => mapping(address => uint256))",
        "numberOfBytes": "32",
        "value": "t_mapping(t_address,t_uint256)"
      },
      "t_mapping(t_uint256,t_struct(Pool)257_storage)": {
        "encoding": "mapping",
        "key": "t_uint256",
        "label": "mapping(uint256 => struct BeeFunded.Pool)",
        "numberOfBytes": "32",
        "value": "t_struct(Pool)257_storage"
      },
      "t_string_storage": {
        "encoding": "bytes",
        "label": "string",
        "numberOfBytes": "32"
      },
      "t_struct(Counter)24_storage": {
        "encoding": "inplace",
        "label": "struct Counters.Counter",
        "members": [
          {
            "astId": 23,
            "contract": "contracts/BeeFunded.sol:BeeFunded",
            "label": "_value",
            "offset": 0,
            "slot": "0",
            "type": "t_uint256"
          }
        ],
        "numberOfBytes": "32"
      },
      "t_struct(Donation)240_storage": {
        "encoding": "inplace",
        "label": "struct BeeFunded.Donation",
        "members": [
          {
            "astId": 233,
            "contract": "contracts/BeeFunded.sol:BeeFunded",
            "label": "donor",
            "offset": 0,
            "slot": "0",
            "type": "t_address"
          },
          {
            "astId": 235,
            "contract": "contracts/BeeFunded.sol:BeeFunded",
            "label": "token",
            "offset": 0,
            "slot": "1",
            "type": "t_address"
          },
          {
            "astId": 237,
            "contract": "contracts/BeeFunded.sol:BeeFunded",
            "label": "amount",
            "offset": 0,
            "slot": "2",
            "type": "t_uint256"
          },
          {
            "astId": 239,
            "contract": "contracts/BeeFunded.sol:BeeFunded",
            "label": "message",
            "offset": 0,
            "slot": "3",
            "type": "t_string_storage"
          }
        ],
        "numberOfBytes": "128"
      },
      "t_struct(Pool)257_storage": {
        "encoding": "inplace",
        "label": "struct BeeFunded.Pool",
        "members": [
          {
            "astId": 242,
            "contract": "contracts/BeeFunded.sol:BeeFunded",
            "label": "id",
            "offset": 0,
            "slot": "0",
            "type": "t_uint256"
          },
          {
            "astId": 244,
            "contract": "contracts/BeeFunded.sol:BeeFunded",
            "label": "owner",
            "offset": 0,
            "slot": "1",
            "type": "t_address"
          },
          {
            "astId": 246,
            "contract": "contracts/BeeFunded.sol:BeeFunded",
            "label": "maxAmountToken",
            "offset": 0,
            "slot": "2",
            "type": "t_uint256"
          },
          {
            "astId": 248,
            "contract": "contracts/BeeFunded.sol:BeeFunded",
            "label": "maxAmountTokenToken",
            "offset": 0,
            "slot": "3",
            "type": "t_address"
          },
          {
            "astId": 250,
            "contract": "contracts/BeeFunded.sol:BeeFunded",
            "label": "metadataUrl",
            "offset": 0,
            "slot": "4",
            "type": "t_string_storage"
          },
          {
            "astId": 252,
            "contract": "contracts/BeeFunded.sol:BeeFunded",
            "label": "chainId",
            "offset": 0,
            "slot": "5",
            "type": "t_uint256"
          },
          {
            "astId": 256,
            "contract": "contracts/BeeFunded.sol:BeeFunded",
            "label": "donations",
            "offset": 0,
            "slot": "6",
            "type": "t_array(t_struct(Donation)240_storage)dyn_storage"
          }
        ],
        "numberOfBytes": "224"
      },
      "t_struct(Subscription)231_storage": {
        "encoding": "inplace",
        "label": "struct BeeFunded.Subscription",
        "members": [
          {
            "astId": 216,
            "contract": "contracts/BeeFunded.sol:BeeFunded",
            "label": "subscriber",
            "offset": 0,
            "slot": "0",
            "type": "t_address"
          },
          {
            "astId": 218,
            "contract": "contracts/BeeFunded.sol:BeeFunded",
            "label": "token",
            "offset": 0,
            "slot": "1",
            "type": "t_address"
          },
          {
            "astId": 220,
            "contract": "contracts/BeeFunded.sol:BeeFunded",
            "label": "amount",
            "offset": 0,
            "slot": "2",
            "type": "t_uint256"
          },
          {
            "astId": 222,
            "contract": "contracts/BeeFunded.sol:BeeFunded",
            "label": "nextPaymentTime",
            "offset": 0,
            "slot": "3",
            "type": "t_uint256"
          },
          {
            "astId": 224,
            "contract": "contracts/BeeFunded.sol:BeeFunded",
            "label": "interval",
            "offset": 0,
            "slot": "4",
            "type": "t_uint256"
          },
          {
            "astId": 226,
            "contract": "contracts/BeeFunded.sol:BeeFunded",
            "label": "poolId",
            "offset": 0,
            "slot": "5",
            "type": "t_uint256"
          },
          {
            "astId": 228,
            "contract": "contracts/BeeFunded.sol:BeeFunded",
            "label": "remainingDuration",
            "offset": 0,
            "slot": "6",
            "type": "t_uint8"
          },
          {
            "astId": 230,
            "contract": "contracts/BeeFunded.sol:BeeFunded",
            "label": "active",
            "offset": 1,
            "slot": "6",
            "type": "t_bool"
          }
        ],
        "numberOfBytes": "224"
      },
      "t_uint256": {
        "encoding": "inplace",
        "label": "uint256",
        "numberOfBytes": "32"
      },
      "t_uint8": {
        "encoding": "inplace",
        "label": "uint8",
        "numberOfBytes": "1"
      }
    }
  }
}