{
  "address": "0x332EEa555CedCA329BeC227f27CA54786EDFB424",
  "abi": [
    {
      "anonymous": false,
      "inputs": [
        {
          "indexed": true,
          "internalType": "uint256",
          "name": "id",
          "type": "uint256"
        },
        {
          "indexed": true,
          "internalType": "address",
          "name": "creator",
          "type": "address"
        }
      ],
      "name": "DonationPoolCreated",
      "type": "event"
    },
    {
      "anonymous": false,
      "inputs": [
        {
          "indexed": true,
          "internalType": "address",
          "name": "from",
          "type": "address"
        },
        {
          "indexed": true,
          "internalType": "address",
          "name": "token",
          "type": "address"
        },
        {
          "indexed": false,
          "internalType": "uint256",
          "name": "amount",
          "type": "uint256"
        },
        {
          "indexed": false,
          "internalType": "string",
          "name": "message",
          "type": "string"
        }
      ],
      "name": "NewDonation",
      "type": "event"
    },
    {
      "anonymous": false,
      "inputs": [
        {
          "indexed": true,
          "internalType": "uint256",
          "name": "poolId",
          "type": "uint256"
        },
        {
          "indexed": true,
          "internalType": "address",
          "name": "subscriber",
          "type": "address"
        },
        {
          "indexed": true,
          "internalType": "address",
          "name": "beneficiary",
          "type": "address"
        },
        {
          "indexed": false,
          "internalType": "uint256",
          "name": "amount",
          "type": "uint256"
        },
        {
          "indexed": false,
          "internalType": "uint256",
          "name": "interval",
          "type": "uint256"
        },
        {
          "indexed": false,
          "internalType": "uint8",
          "name": "duration",
          "type": "uint8"
        }
      ],
      "name": "SubscriptionCreated",
      "type": "event"
    },
    {
      "anonymous": false,
      "inputs": [
        {
          "indexed": true,
          "internalType": "uint256",
          "name": "poolId",
          "type": "uint256"
        },
        {
          "indexed": true,
          "internalType": "address",
          "name": "subscriber",
          "type": "address"
        },
        {
          "indexed": true,
          "internalType": "address",
          "name": "beneficiary",
          "type": "address"
        }
      ],
      "name": "SubscriptionExpired",
      "type": "event"
    },
    {
      "anonymous": false,
      "inputs": [
        {
          "indexed": true,
          "internalType": "uint256",
          "name": "poolId",
          "type": "uint256"
        },
        {
          "indexed": true,
          "internalType": "address",
          "name": "subscriber",
          "type": "address"
        },
        {
          "indexed": true,
          "internalType": "address",
          "name": "beneficiary",
          "type": "address"
        }
      ],
      "name": "SubscriptionPaymentFailed",
      "type": "event"
    },
    {
      "inputs": [
        {
          "internalType": "uint256",
          "name": "poolId",
          "type": "uint256"
        },
        {
          "internalType": "address",
          "name": "tokenAddress",
          "type": "address"
        }
      ],
      "name": "balanceOf",
      "outputs": [
        {
          "internalType": "uint256",
          "name": "",
          "type": "uint256"
        }
      ],
      "stateMutability": "view",
      "type": "function"
    },
    {
      "inputs": [
        {
          "internalType": "bytes",
          "name": "",
          "type": "bytes"
        }
      ],
      "name": "checkUpkeep",
      "outputs": [
        {
          "internalType": "bool",
          "name": "",
          "type": "bool"
        },
        {
          "internalType": "bytes",
          "name": "",
          "type": "bytes"
        }
      ],
      "stateMutability": "view",
      "type": "function"
    },
    {
      "inputs": [
        {
          "internalType": "uint256",
          "name": "_maxAmountToken",
          "type": "uint256"
        },
        {
          "internalType": "string",
          "name": "metadata",
          "type": "string"
        }
      ],
      "name": "createPool",
      "outputs": [
        {
          "internalType": "uint256",
          "name": "",
          "type": "uint256"
        }
      ],
      "stateMutability": "nonpayable",
      "type": "function"
    },
    {
      "inputs": [
        {
          "internalType": "uint256",
          "name": "poolId",
          "type": "uint256"
        },
        {
          "internalType": "address",
          "name": "tokenAddress",
          "type": "address"
        },
        {
          "internalType": "uint256",
          "name": "amount",
          "type": "uint256"
        },
        {
          "internalType": "string",
          "name": "message",
          "type": "string"
        }
      ],
      "name": "donate",
      "outputs": [],
      "stateMutability": "payable",
      "type": "function"
    },
    {
      "inputs": [
        {
          "internalType": "address",
          "name": "_donor",
          "type": "address"
        },
        {
          "internalType": "uint256",
          "name": "poolId",
          "type": "uint256"
        },
        {
          "internalType": "address",
          "name": "tokenAddress",
          "type": "address"
        },
        {
          "internalType": "uint256",
          "name": "amount",
          "type": "uint256"
        },
        {
          "internalType": "string",
          "name": "message",
          "type": "string"
        },
        {
          "internalType": "uint256",
          "name": "deadline",
          "type": "uint256"
        },
        {
          "internalType": "uint8",
          "name": "v",
          "type": "uint8"
        },
        {
          "internalType": "bytes32",
          "name": "r",
          "type": "bytes32"
        },
        {
          "internalType": "bytes32",
          "name": "s",
          "type": "bytes32"
        }
      ],
      "name": "donateWithPermit",
      "outputs": [],
      "stateMutability": "nonpayable",
      "type": "function"
    },
    {
      "inputs": [
        {
          "internalType": "uint256[]",
          "name": "_poolIds",
          "type": "uint256[]"
        }
      ],
      "name": "getSubsByPoolIds",
      "outputs": [
        {
          "components": [
            {
              "internalType": "address",
              "name": "subscriber",
              "type": "address"
            },
            {
              "internalType": "address",
              "name": "token",
              "type": "address"
            },
            {
              "internalType": "uint256",
              "name": "amount",
              "type": "uint256"
            },
            {
              "internalType": "uint256",
              "name": "nextPaymentTime",
              "type": "uint256"
            },
            {
              "internalType": "uint256",
              "name": "interval",
              "type": "uint256"
            },
            {
              "internalType": "uint256",
              "name": "poolId",
              "type": "uint256"
            },
            {
              "internalType": "uint8",
              "name": "remainingDuration",
              "type": "uint8"
            },
            {
              "internalType": "bool",
              "name": "active",
              "type": "bool"
            }
          ],
          "internalType": "struct BeeFunded.Subscription[]",
          "name": "",
          "type": "tuple[]"
        }
      ],
      "stateMutability": "view",
      "type": "function"
    },
    {
      "inputs": [
        {
          "internalType": "address",
          "name": "subscriber",
          "type": "address"
        },
        {
          "internalType": "address",
          "name": "creator",
          "type": "address"
        }
      ],
      "name": "isSubscribed",
      "outputs": [
        {
          "internalType": "bool",
          "name": "",
          "type": "bool"
        }
      ],
      "stateMutability": "view",
      "type": "function"
    },
    {
      "inputs": [
        {
          "internalType": "bytes",
          "name": "performData",
          "type": "bytes"
        }
      ],
      "name": "performUpkeep",
      "outputs": [],
      "stateMutability": "nonpayable",
      "type": "function"
    },
    {
      "inputs": [
        {
          "internalType": "uint256",
          "name": "",
          "type": "uint256"
        },
        {
          "internalType": "address",
          "name": "",
          "type": "address"
        }
      ],
      "name": "poolBalances",
      "outputs": [
        {
          "internalType": "uint256",
          "name": "",
          "type": "uint256"
        }
      ],
      "stateMutability": "view",
      "type": "function"
    },
    {
      "inputs": [],
      "name": "poolID",
      "outputs": [
        {
          "internalType": "uint256",
          "name": "_value",
          "type": "uint256"
        }
      ],
      "stateMutability": "view",
      "type": "function"
    },
    {
      "inputs": [
        {
          "internalType": "uint256",
          "name": "",
          "type": "uint256"
        }
      ],
      "name": "pools",
      "outputs": [
        {
          "internalType": "uint256",
          "name": "id",
          "type": "uint256"
        },
        {
          "internalType": "address",
          "name": "owner",
          "type": "address"
        },
        {
          "internalType": "uint256",
          "name": "maxAmountToken",
          "type": "uint256"
        },
        {
          "internalType": "address",
          "name": "maxAmountTokenToken",
          "type": "address"
        },
        {
          "internalType": "string",
          "name": "metadataUrl",
          "type": "string"
        },
        {
          "internalType": "uint256",
          "name": "chainId",
          "type": "uint256"
        }
      ],
      "stateMutability": "view",
      "type": "function"
    },
    {
      "inputs": [
        {
          "internalType": "address",
          "name": "subscriber",
          "type": "address"
        },
        {
          "internalType": "uint256",
          "name": "poolId",
          "type": "uint256"
        },
        {
          "internalType": "address",
          "name": "token",
          "type": "address"
        },
        {
          "internalType": "uint256",
          "name": "amount",
          "type": "uint256"
        },
        {
          "internalType": "uint256",
          "name": "interval",
          "type": "uint256"
        },
        {
          "internalType": "uint8",
          "name": "duration",
          "type": "uint8"
        },
        {
          "internalType": "uint256",
          "name": "deadline",
          "type": "uint256"
        },
        {
          "internalType": "uint8",
          "name": "v",
          "type": "uint8"
        },
        {
          "internalType": "bytes32",
          "name": "r",
          "type": "bytes32"
        },
        {
          "internalType": "bytes32",
          "name": "s",
          "type": "bytes32"
        }
      ],
      "name": "subscribe",
      "outputs": [],
      "stateMutability": "nonpayable",
      "type": "function"
    },
    {
      "inputs": [
        {
          "internalType": "uint256",
          "name": "",
          "type": "uint256"
        }
      ],
      "name": "subscriptions",
      "outputs": [
        {
          "internalType": "address",
          "name": "subscriber",
          "type": "address"
        },
        {
          "internalType": "address",
          "name": "token",
          "type": "address"
        },
        {
          "internalType": "uint256",
          "name": "amount",
          "type": "uint256"
        },
        {
          "internalType": "uint256",
          "name": "nextPaymentTime",
          "type": "uint256"
        },
        {
          "internalType": "uint256",
          "name": "interval",
          "type": "uint256"
        },
        {
          "internalType": "uint256",
          "name": "poolId",
          "type": "uint256"
        },
        {
          "internalType": "uint8",
          "name": "remainingDuration",
          "type": "uint8"
        },
        {
          "internalType": "bool",
          "name": "active",
          "type": "bool"
        }
      ],
      "stateMutability": "view",
      "type": "function"
    },
    {
      "inputs": [],
      "name": "unsubscribe",
      "outputs": [],
      "stateMutability": "nonpayable",
      "type": "function"
    },
    {
      "inputs": [
        {
          "internalType": "uint256",
          "name": "poolId",
          "type": "uint256"
        },
        {
          "internalType": "address",
          "name": "tokenAddress",
          "type": "address"
        },
        {
          "internalType": "uint256",
          "name": "amount",
          "type": "uint256"
        }
      ],
      "name": "withdraw",
      "outputs": [],
      "stateMutability": "nonpayable",
      "type": "function"
    },
    {
      "stateMutability": "payable",
      "type": "receive"
    }
  ],
  "transactionHash": "0x5f0a9c13baf8dac4dd0ae6e6d2bcafded090655467c6330b8b367c4a23ed810c",
  "args": [],
  "numDeployments": 5,
  "solcInputHash": "b88d99a1d72a909d57199ce0ca4516db",
  "bytecode": "0x6080604052348015600f57600080fd5b50611e1b8061001f6000396000f3fe6080604052600436106100ec5760003560e01c80637f15463e1161008a578063ce4a37fe11610059578063ce4a37fe146102e4578063e63697c814610304578063f6416ef614610324578063fcae44841461035457600080fd5b80637f15463e146102535780638d93448514610266578063ac4afa381461027d578063bdcf2b06146102af57600080fd5b80633656eec2116100c65780633656eec2146101b75780634585e33b146101e557806368c44a2a146102055780636e04ff0d1461022557600080fd5b80632af587c6146100f85780632d5bbf601461011a57806330a412591461018a57600080fd5b366100f357005b600080fd5b34801561010457600080fd5b506101186101133660046115bf565b610369565b005b34801561012657600080fd5b5061013a610135366004611652565b61067e565b604080516001600160a01b03998a168152989097166020890152958701949094526060860192909252608085015260a084015260ff1660c0830152151560e0820152610100015b60405180910390f35b34801561019657600080fd5b506101aa6101a536600461166b565b6106e6565b60405161018191906116e2565b3480156101c357600080fd5b506101d76101d2366004611791565b610918565b604051908152602001610181565b3480156101f157600080fd5b506101186102003660046117ff565b610941565b34801561021157600080fd5b50610118610220366004611841565b610b2e565b34801561023157600080fd5b506102456102403660046117ff565b610c49565b604051610181929190611930565b610118610261366004611953565b610d13565b34801561027257600080fd5b506003546101d79081565b34801561028957600080fd5b5061029d610298366004611652565b610d5d565b604051610181969594939291906119bb565b3480156102bb57600080fd5b506101d76102ca366004611791565b600060208181529281526040808220909352908152205481565b3480156102f057600080fd5b506101d76102ff366004611a07565b610e29565b34801561031057600080fd5b5061011861031f366004611a53565b610eb9565b34801561033057600080fd5b5061034461033f366004611a89565b6110aa565b6040519015158152602001610181565b34801561036057600080fd5b506101186111a6565b62093a808610156103ba5760405162461bcd60e51b81526020600482015260166024820152754d696e20696e74657276616c2069732031207765656b60501b60448201526064015b60405180910390fd5b600087116103f85760405162461bcd60e51b815260206004820152600b60248201526a16995c9bc8185b5bdd5b9d60aa1b60448201526064016103b1565b600089815260016020819052604090912001546001600160a01b03166104565760405162461bcd60e51b8152602060048201526013602482015272141bdbdb08191bd95cc81b9bdd08195e1a5cdd606a1b60448201526064016103b1565b61046b61046660ff871689611ac9565b61123a565b6001600160a01b03881663d505accf8b3061048960ff8a168c611ac9565b888888886040518863ffffffff1660e01b81526004016104af9796959493929190611ae0565b600060405180830381600087803b1580156104c957600080fd5b505af11580156104dd573d6000803e3d6000fd5b505050506105128a8a8a8a6040518060400160405280600c81526020016b29bab139b1b934b83a34b7b760a11b81525061127f565b60026040518061010001604052808c6001600160a01b031681526020018a6001600160a01b0316815260200189815260200188426105509190611b21565b81526020018881526020018b815260200160018861056e9190611b34565b60ff908116825260016020928301819052845480820186556000958652838620855160079092020180546001600160a01b039283166001600160a01b031991821617825586860151828501805491851691909216179055604080870151600283015560608088015160038401556080880151600484015560a0880151600584015560c08801516006909301805460e09099015115156101000261ffff1990991693871693909317979097179091558f8752828552958690209091015485518d81529384018c9052918a16948301949094528316928d16918c917f016cc022c5fc5f73252ee442d1635e716a1b2170f33a6aa79d048fa4cf605653910160405180910390a450505050505050505050565b6002818154811061068e57600080fd5b600091825260209091206007909102018054600182015460028301546003840154600485015460058601546006909601546001600160a01b039586169750949093169491939092919060ff8082169161010090041688565b60606000805b6002548110156107635760005b8481101561075a5785858281811061071357610713611b4d565b905060200201356002838154811061072d5761072d611b4d565b90600052602060002090600702016005015403610752578261074e81611b63565b9350505b6001016106f9565b506001016106ec565b5060008167ffffffffffffffff81111561077f5761077f611b7c565b6040519080825280602002602001820160405280156107ee57816020015b604080516101008101825260008082526020808301829052928201819052606082018190526080820181905260a0820181905260c0820181905260e0820152825260001990920191018161079d5790505b50905060005b60025481101561090d5760005b858110156109045786868281811061081b5761081b611b4d565b905060200201356002838154811061083557610835611b4d565b906000526020600020906007020160050154036108fc576002828154811061085f5761085f611b4d565b6000918252602091829020604080516101008082018352600790940290920180546001600160a01b039081168452600182015416948301949094526002840154908201526003830154606082015260048301546080820152600583015460a082015260069092015460ff80821660c085015291900416151560e082015283518490849081106108f0576108f0611b4d565b60200260200101819052505b600101610801565b506001016107f4565b509150505b92915050565b6000828152602081815260408083206001600160a01b03851684529091528120545b9392505050565b600061094f82840184611652565b905060006002828154811061096657610966611b4d565b906000526020600020906007020190508060060160019054906101000a900460ff166109d45760405162461bcd60e51b815260206004820152601a60248201527f537562736372697074696f6e206973206e6f742061637469766500000000000060448201526064016103b1565b8060030154421015610a165760405162461bcd60e51b815260206004820152600b60248201526a139bdd08191d59481e595d60aa1b60448201526064016103b1565b80546005820154600183015460028401546040805180820190915260128152712932b1bab93934b733903237b730ba34b7b760711b6020820152610a69946001600160a01b03908116949316919061127f565b600681015460ff16600103610ad85760068101805461ff00191690556005810154600081815260016020819052604080832090910154845491516001600160a01b039182169492909116927f6f64c430f1757a2f963df92588b54232dcc1729acb6862408a0f261d5d78771d91a45b60068101805460019190600090610af390849060ff16611b34565b92506101000a81548160ff021916908360ff1602179055508060040154816003016000828254610b239190611b21565b909155505050505050565b6001600160a01b038816610b905760405162461bcd60e51b815260206004820152602360248201527f43616e6e6f7420757365207065726d69742077697468206e617469766520746f60448201526235b2b760e91b60648201526084016103b1565b60405163d505accf60e01b81526001600160a01b0389169063d505accf90610bc8908d9030908c908a908a908a908a90600401611ae0565b600060405180830381600087803b158015610be257600080fd5b505af1158015610bf6573d6000803e3d6000fd5b50505050610c3d8a8a8a8a8a8a8080601f01602080910402602001604051908101604052809392919081815260200183838082843760009201919091525061127f92505050565b50505050505050505050565b6000606060005b600254811015610cf75760028181548110610c6d57610c6d611b4d565b906000526020600020906007020160060160019054906101000a900460ff168015610cbc575060028181548110610ca657610ca6611b4d565b9060005260206000209060070201600301544210155b15610cef57600181604051602001610cd691815260200190565b6040516020818303038152906040529250925050610d0c565b600101610c50565b50506040805160208101909152600080825291505b9250929050565b610d563386868686868080601f01602080910402602001604051908101604052809392919081815260200183838082843760009201919091525061127f92505050565b5050505050565b6001602081905260009182526040909120805491810154600282015460038301546004840180546001600160a01b039485169593949092169291610da090611b92565b80601f0160208091040260200160405190810160405280929190818152602001828054610dcc90611b92565b8015610e195780601f10610dee57610100808354040283529160200191610e19565b820191906000526020600020905b815481529060010190602001808311610dfc57829003601f168201915b5050505050908060050154905086565b6000610e39600380546001019055565b600354600081815260016020526040902090815560048101610e5c848683611c18565b506001810180546001600160a01b03191633908117909155600282018690554660058301556003546040517f3013955dcb2503d093c0592e59541b3d266372edb1a63ea9ad2d5845314cde2090600090a350506003549392505050565b6000838152600160208190526040909120015483906001600160a01b03163314610f165760405162461bcd60e51b815260206004820152600e60248201526d2737ba103837b7b61037bbb732b960911b60448201526064016103b1565b6000848152602081815260408083206001600160a01b0387168452909152902054821115610f7d5760405162461bcd60e51b8152602060048201526014602482015273496e73756666696369656e742062616c616e636560601b60448201526064016103b1565b826001600160a01b038116610fbf57604051339084156108fc029085906000818181858888f19350505050158015610fb9573d6000803e3d6000fd5b5061106e565b60405163a9059cbb60e01b8152336004820152602481018490526001600160a01b0382169063a9059cbb906044016020604051808303816000875af115801561100c573d6000803e3d6000fd5b505050506040513d601f19601f820116820180604052508101906110309190611cd8565b61106e5760405162461bcd60e51b815260206004820152600f60248201526e151c985b9cd9995c8819985a5b1959608a1b60448201526064016103b1565b6000858152602081815260408083206001600160a01b03881684529091528120805485929061109e908490611cfa565b90915550505050505050565b6000805b60025481101561119c57600281815481106110cb576110cb611b4d565b906000526020600020906007020160060160019054906101000a900460ff16801561112a5750836001600160a01b03166002828154811061110e5761110e611b4d565b60009182526020909120600790910201546001600160a01b0316145b80156111855750826001600160a01b0316600160006002848154811061115257611152611b4d565b600091825260208083206005600790930201919091015483528201929092526040019020600101546001600160a01b0316145b15611194576001915050610912565b6001016110ae565b5060009392505050565b60005b60025481101561123757336001600160a01b0316600282815481106111d0576111d0611b4d565b60009182526020909120600790910201546001600160a01b03160361122f5760006002828154811061120457611204611b4d565b906000526020600020906007020160060160016101000a81548160ff02191690831515021790555050565b6001016111a9565b50565b6112378160405160240161125091815260200190565b60408051601f198184030181529190526020810180516001600160e01b031663f82c50f160e01b17905261156d565b6000848152600160208190526040909120908101546001600160a01b03166112df5760405162461bcd60e51b8152602060048201526013602482015272141bdbdb08191bd95cc81b9bdd08195e1a5cdd606a1b60448201526064016103b1565b6001600160a01b03841661134d576000341180156112fc57508234145b6113485760405162461bcd60e51b815260206004820152601b60248201527f496e76616c6964204e617469766520546f6b656e20616d6f756e74000000000060448201526064016103b1565b61144e565b600083116113925760405162461bcd60e51b81526020600482015260126024820152710416d6f756e74206d757374206265203e20360741b60448201526064016103b1565b6040516323b872dd60e01b81526001600160a01b038781166004830152306024830152604482018590528591908216906323b872dd906064016020604051808303816000875af11580156113ea573d6000803e3d6000fd5b505050506040513d601f19601f8201168201806040525081019061140e9190611cd8565b61144c5760405162461bcd60e51b815260206004820152600f60248201526e151c985b9cd9995c8819985a5b1959608a1b60448201526064016103b1565b505b604080516080810182526001600160a01b03808916825286811660208084019182529383018781526060840187815260068701805460018181018355600092835297909120865160049092020180549186166001600160a01b0319928316178155935196840180549790951696169590951790925590516002820155915190919060038201906114de9082611d0d565b5050506000858152602081815260408083206001600160a01b038816845290915281208054859290611511908490611b21565b92505081905550836001600160a01b0316866001600160a01b03167f4317221858e5f793cf2d901da4c6891208aa0dd30fde8804bbe7e894828142c6858560405161155d929190611dcc565b60405180910390a3505050505050565b6112378160006a636f6e736f6c652e6c6f679050600080835160208501845afa505050565b80356001600160a01b03811681146115a957600080fd5b919050565b803560ff811681146115a957600080fd5b6000806000806000806000806000806101408b8d0312156115df57600080fd5b6115e88b611592565b995060208b013598506115fd60408c01611592565b975060608b0135965060808b0135955061161960a08c016115ae565b945060c08b0135935061162e60e08c016115ae565b999c989b509699959894979396509194610100810135936101209091013592509050565b60006020828403121561166457600080fd5b5035919050565b6000806020838503121561167e57600080fd5b823567ffffffffffffffff81111561169557600080fd5b8301601f810185136116a657600080fd5b803567ffffffffffffffff8111156116bd57600080fd5b8560208260051b84010111156116d257600080fd5b6020919091019590945092505050565b602080825282518282018190526000918401906040840190835b8181101561178657835160018060a01b03815116845260018060a01b03602082015116602085015260408101516040850152606081015160608501526080810151608085015260a081015160a085015260ff60c08201511660c085015260e0810151905061176e60e085018215159052565b506020939093019261010092909201916001016116fc565b509095945050505050565b600080604083850312156117a457600080fd5b823591506117b460208401611592565b90509250929050565b60008083601f8401126117cf57600080fd5b50813567ffffffffffffffff8111156117e757600080fd5b602083019150836020828501011115610d0c57600080fd5b6000806020838503121561181257600080fd5b823567ffffffffffffffff81111561182957600080fd5b611835858286016117bd565b90969095509350505050565b6000806000806000806000806000806101208b8d03121561186157600080fd5b61186a8b611592565b995060208b0135985061187f60408c01611592565b975060608b0135965060808b013567ffffffffffffffff8111156118a257600080fd5b6118ae8d828e016117bd565b90975095505060a08b013593506118c760c08c016115ae565b999c989b50969995989497939650919460e0810135936101009091013592509050565b6000815180845260005b81811015611910576020818501810151868301820152016118f4565b506000602082860101526020601f19601f83011685010191505092915050565b821515815260406020820152600061194b60408301846118ea565b949350505050565b60008060008060006080868803121561196b57600080fd5b8535945061197b60208701611592565b935060408601359250606086013567ffffffffffffffff81111561199e57600080fd5b6119aa888289016117bd565b969995985093965092949392505050565b8681526001600160a01b038681166020830152604082018690528416606082015260c0608082018190526000906119f4908301856118ea565b90508260a0830152979650505050505050565b600080600060408486031215611a1c57600080fd5b83359250602084013567ffffffffffffffff811115611a3a57600080fd5b611a46868287016117bd565b9497909650939450505050565b600080600060608486031215611a6857600080fd5b83359250611a7860208501611592565b929592945050506040919091013590565b60008060408385031215611a9c57600080fd5b611aa583611592565b91506117b460208401611592565b634e487b7160e01b600052601160045260246000fd5b808202811582820484141761091257610912611ab3565b6001600160a01b0397881681529590961660208601526040850193909352606084019190915260ff16608083015260a082015260c081019190915260e00190565b8082018082111561091257610912611ab3565b60ff828116828216039081111561091257610912611ab3565b634e487b7160e01b600052603260045260246000fd5b600060018201611b7557611b75611ab3565b5060010190565b634e487b7160e01b600052604160045260246000fd5b600181811c90821680611ba657607f821691505b602082108103611bc657634e487b7160e01b600052602260045260246000fd5b50919050565b601f821115611c1357806000526020600020601f840160051c81016020851015611bf35750805b601f840160051c820191505b81811015610d565760008155600101611bff565b505050565b67ffffffffffffffff831115611c3057611c30611b7c565b611c4483611c3e8354611b92565b83611bcc565b6000601f841160018114611c785760008515611c605750838201355b600019600387901b1c1916600186901b178355610d56565b600083815260209020601f19861690835b82811015611ca95786850135825560209485019460019092019101611c89565b5086821015611cc65760001960f88860031b161c19848701351681555b505060018560011b0183555050505050565b600060208284031215611cea57600080fd5b8151801515811461093a57600080fd5b8181038181111561091257610912611ab3565b815167ffffffffffffffff811115611d2757611d27611b7c565b611d3b81611d358454611b92565b84611bcc565b6020601f821160018114611d6f5760008315611d575750848201515b600019600385901b1c1916600184901b178455610d56565b600084815260208120601f198516915b82811015611d9f5787850151825560209485019460019092019101611d7f565b5084821015611dbd5786840151600019600387901b60f8161c191681555b50505050600190811b01905550565b82815260406020820152600061194b60408301846118ea56fea264697066735822122032bf68389722f3f4e00dd673254e9191d195efc747f0b27df7697781b19d130564736f6c634300081e0033",
  "devdoc": {
    "kind": "dev",
    "methods": {
      "performUpkeep(bytes)": {
        "details": "The input to this method should not be trusted, and the caller of the method should not even be restricted to any single registry. Anyone should be able call it, and the input should be validated, there is no guarantee that the data passed in is the performData returned from checkUpkeep. This could happen due to malicious keepers, racing keepers, or simply a state change while the performUpkeep transaction is waiting for confirmation. Always validate the data passed in.",
        "params": {
          "performData": "is the data which was passed back from the checkData simulation. If it is encoded, it can easily be decoded into other types by calling `abi.decode`. This data should not be trusted, and should be validated against the contract's current state."
        }
      }
    },
    "version": 1
  },
  "userdoc": {
    "kind": "user",
    "methods": {
      "performUpkeep(bytes)": {
        "notice": "method that is actually executed by the keepers, via the registry. The data returned by the checkUpkeep simulation will be passed into this method to actually be executed."
      }
    },
    "version": 1
  },
  "storageLayout": {
    "storage": [
      {
        "astId": 315,
        "contract": "contracts/BeeFunded.sol:BeeFunded",
        "label": "poolBalances",
        "offset": 0,
        "slot": "0",
        "type": "t_mapping(t_uint256,t_mapping(t_address,t_uint256))"
      },
      {
        "astId": 320,
        "contract": "contracts/BeeFunded.sol:BeeFunded",
        "label": "pools",
        "offset": 0,
        "slot": "1",
        "type": "t_mapping(t_uint256,t_struct(Pool)309_storage)"
      },
      {
        "astId": 324,
        "contract": "contracts/BeeFunded.sol:BeeFunded",
        "label": "subscriptions",
        "offset": 0,
        "slot": "2",
        "type": "t_array(t_struct(Subscription)283_storage)dyn_storage"
      },
      {
        "astId": 331,
        "contract": "contracts/BeeFunded.sol:BeeFunded",
        "label": "poolID",
        "offset": 0,
        "slot": "3",
        "type": "t_struct(Counter)24_storage"
      }
    ],
    "types": {
      "t_address": {
        "encoding": "inplace",
        "label": "address",
        "numberOfBytes": "20"
      },
      "t_array(t_struct(Donation)292_storage)dyn_storage": {
        "base": "t_struct(Donation)292_storage",
        "encoding": "dynamic_array",
        "label": "struct BeeFunded.Donation[]",
        "numberOfBytes": "32"
      },
      "t_array(t_struct(Subscription)283_storage)dyn_storage": {
        "base": "t_struct(Subscription)283_storage",
        "encoding": "dynamic_array",
        "label": "struct BeeFunded.Subscription[]",
        "numberOfBytes": "32"
      },
      "t_bool": {
        "encoding": "inplace",
        "label": "bool",
        "numberOfBytes": "1"
      },
      "t_mapping(t_address,t_uint256)": {
        "encoding": "mapping",
        "key": "t_address",
        "label": "mapping(address => uint256)",
        "numberOfBytes": "32",
        "value": "t_uint256"
      },
      "t_mapping(t_uint256,t_mapping(t_address,t_uint256))": {
        "encoding": "mapping",
        "key": "t_uint256",
        "label": "mapping(uint256 => mapping(address => uint256))",
        "numberOfBytes": "32",
        "value": "t_mapping(t_address,t_uint256)"
      },
      "t_mapping(t_uint256,t_struct(Pool)309_storage)": {
        "encoding": "mapping",
        "key": "t_uint256",
        "label": "mapping(uint256 => struct BeeFunded.Pool)",
        "numberOfBytes": "32",
        "value": "t_struct(Pool)309_storage"
      },
      "t_string_storage": {
        "encoding": "bytes",
        "label": "string",
        "numberOfBytes": "32"
      },
      "t_struct(Counter)24_storage": {
        "encoding": "inplace",
        "label": "struct Counters.Counter",
        "members": [
          {
            "astId": 23,
            "contract": "contracts/BeeFunded.sol:BeeFunded",
            "label": "_value",
            "offset": 0,
            "slot": "0",
            "type": "t_uint256"
          }
        ],
        "numberOfBytes": "32"
      },
      "t_struct(Donation)292_storage": {
        "encoding": "inplace",
        "label": "struct BeeFunded.Donation",
        "members": [
          {
            "astId": 285,
            "contract": "contracts/BeeFunded.sol:BeeFunded",
            "label": "donor",
            "offset": 0,
            "slot": "0",
            "type": "t_address"
          },
          {
            "astId": 287,
            "contract": "contracts/BeeFunded.sol:BeeFunded",
            "label": "token",
            "offset": 0,
            "slot": "1",
            "type": "t_address"
          },
          {
            "astId": 289,
            "contract": "contracts/BeeFunded.sol:BeeFunded",
            "label": "amount",
            "offset": 0,
            "slot": "2",
            "type": "t_uint256"
          },
          {
            "astId": 291,
            "contract": "contracts/BeeFunded.sol:BeeFunded",
            "label": "message",
            "offset": 0,
            "slot": "3",
            "type": "t_string_storage"
          }
        ],
        "numberOfBytes": "128"
      },
      "t_struct(Pool)309_storage": {
        "encoding": "inplace",
        "label": "struct BeeFunded.Pool",
        "members": [
          {
            "astId": 294,
            "contract": "contracts/BeeFunded.sol:BeeFunded",
            "label": "id",
            "offset": 0,
            "slot": "0",
            "type": "t_uint256"
          },
          {
            "astId": 296,
            "contract": "contracts/BeeFunded.sol:BeeFunded",
            "label": "owner",
            "offset": 0,
            "slot": "1",
            "type": "t_address"
          },
          {
            "astId": 298,
            "contract": "contracts/BeeFunded.sol:BeeFunded",
            "label": "maxAmountToken",
            "offset": 0,
            "slot": "2",
            "type": "t_uint256"
          },
          {
            "astId": 300,
            "contract": "contracts/BeeFunded.sol:BeeFunded",
            "label": "maxAmountTokenToken",
            "offset": 0,
            "slot": "3",
            "type": "t_address"
          },
          {
            "astId": 302,
            "contract": "contracts/BeeFunded.sol:BeeFunded",
            "label": "metadataUrl",
            "offset": 0,
            "slot": "4",
            "type": "t_string_storage"
          },
          {
            "astId": 304,
            "contract": "contracts/BeeFunded.sol:BeeFunded",
            "label": "chainId",
            "offset": 0,
            "slot": "5",
            "type": "t_uint256"
          },
          {
            "astId": 308,
            "contract": "contracts/BeeFunded.sol:BeeFunded",
            "label": "donations",
            "offset": 0,
            "slot": "6",
            "type": "t_array(t_struct(Donation)292_storage)dyn_storage"
          }
        ],
        "numberOfBytes": "224"
      },
      "t_struct(Subscription)283_storage": {
        "encoding": "inplace",
        "label": "struct BeeFunded.Subscription",
        "members": [
          {
            "astId": 268,
            "contract": "contracts/BeeFunded.sol:BeeFunded",
            "label": "subscriber",
            "offset": 0,
            "slot": "0",
            "type": "t_address"
          },
          {
            "astId": 270,
            "contract": "contracts/BeeFunded.sol:BeeFunded",
            "label": "token",
            "offset": 0,
            "slot": "1",
            "type": "t_address"
          },
          {
            "astId": 272,
            "contract": "contracts/BeeFunded.sol:BeeFunded",
            "label": "amount",
            "offset": 0,
            "slot": "2",
            "type": "t_uint256"
          },
          {
            "astId": 274,
            "contract": "contracts/BeeFunded.sol:BeeFunded",
            "label": "nextPaymentTime",
            "offset": 0,
            "slot": "3",
            "type": "t_uint256"
          },
          {
            "astId": 276,
            "contract": "contracts/BeeFunded.sol:BeeFunded",
            "label": "interval",
            "offset": 0,
            "slot": "4",
            "type": "t_uint256"
          },
          {
            "astId": 278,
            "contract": "contracts/BeeFunded.sol:BeeFunded",
            "label": "poolId",
            "offset": 0,
            "slot": "5",
            "type": "t_uint256"
          },
          {
            "astId": 280,
            "contract": "contracts/BeeFunded.sol:BeeFunded",
            "label": "remainingDuration",
            "offset": 0,
            "slot": "6",
            "type": "t_uint8"
          },
          {
            "astId": 282,
            "contract": "contracts/BeeFunded.sol:BeeFunded",
            "label": "active",
            "offset": 1,
            "slot": "6",
            "type": "t_bool"
          }
        ],
        "numberOfBytes": "224"
      },
      "t_uint256": {
        "encoding": "inplace",
        "label": "uint256",
        "numberOfBytes": "32"
      },
      "t_uint8": {
        "encoding": "inplace",
        "label": "uint8",
        "numberOfBytes": "1"
      }
    }
  }
}